:100000000C9435010C9466010C9466010C94660105
:100010000C9466010C9466010C9466010C946601C4
:100020000C9466010C9466010C9466010C946601B4
:100030000C9466010C9466010C9466010C946601A4
:100040000C9466010C9466010C9466010C94660194
:100050000C9466010C9466010C9466010C944004A7
:100060000C9466010C94B4040C948A040C946601FC
:100070000C9466010C9466010C9466010C94660164
:100080000C9466010C9466010C9466010C94660154
:100090000C9466010C9466010C9466010C94660144
:1000A0000C9466010C9466010C9466010C94660134
:1000B0000C9466010C9466010C9466010C94660124
:1000C0000C9466010C9466010C9466010C94660114
:1000D0000C9466010C9466010C9466010C94660104
:1000E0000C9466010C94C8020C94C4020C94CC02CB
:1000F0000C94CF020C94FB020C94E7020C94F502D2
:100100000C94FA020C94D9020C94F1020C94C601DE
:100110000C944B020C94B8010C9452070C94E3021B
:100120000C94BA020C94DF020C9495010C94D50245
:100130000C94C0020C9468010C94ED020C94A40180
:100140000C94FF020C94FE01000021002400270003
:100150002A002D00300033000101000004010701D6
:100160000A0100002200250028002B002E0031008B
:10017000340002010000050108010B01000020000D
:100180002300260029002C002F003200000100006F
:10019000030106010901050505050705080808080A
:1001A000020202020A0A080804040404010101010F
:1001B000010101010303030303030303040707070A
:1001C0000C0C0C0C0C0C0C0C0202020206060606AF
:1001D000060606060B0B0B0B0B0B0B0B010210207C
:1001E000200808102040102040800201020108046D
:1001F0000201010204081020408080402010080401
:100200000201800402018040201008040201080459
:10021000020101020408102040800102040810209D
:10022000408000000A0B02090C0D0E0807030401B0
:1002300000000000000000000000000000000000BE
:10024000000000000000000000000000000012118B
:10025000100000000000000000000000000000008E
:100260000000000000000000520711241FBECFEF65
:10027000D1E2DEBFCDBF00E00CBF12E0A0E0B2E0F3
:10028000E0E2F1E100E00BBF02C007900D92A8315F
:10029000B107D9F722E0A8E1B2E001C01D92A23C6B
:1002A000B207E1F711E0C5E3D1E000E006C0219715
:1002B0000109802FFE010E948608C433D10780E027
:1002C0000807A9F70E94EA040C948E080C94000019
:1002D000AF92BF92CF92DF92EF92FF920F931F9354
:1002E000CF93DF936C017B018B01040F151FEB0192
:1002F0005E01AE18BF08C017D10759F06991D60149
:10030000ED91FC910190F081E02DC6011995892BAA
:1003100079F7C501DF91CF911F910F91FF90EF9079
:10032000DF90CF90BF90AF900895FC01538D448D26
:10033000252F30E0842F90E0821B930B541710F090
:10034000CF96089501970895FC01918D828D98179D
:1003500061F0A28DAE0FBF2FB11D5D968C91928D75
:100360009F5F9F73928F90E008958FEF9FEF0895A6
:10037000FC01918D828D981731F0828DE80FF11D6F
:10038000858D90E008958FEF9FEF0895FC01918D8A
:10039000228D892F90E0805C9F4F821B91098F7383
:1003A0009927089588E192E00E94C60121E0892BF7
:1003B00009F420E0822F0895FC01A48DA80FB92F25
:1003C000B11DA35ABF4F2C91848D90E001968F737D
:1003D0009927848FA689B7892C93A089B1898C919C
:1003E000837080648C93938D848D981306C00288EB
:1003F000F389E02D80818F7D80830895EF92FF92B5
:100400000F931F93CF93DF93EC0181E0888F9B8D37
:100410008C8D98131AC0E889F989808185FF15C0F1
:100420009FB7F894EE89FF896083E889F989808114
:100430008370806480839FBF81E090E0DF91CF91E3
:100440001F910F91FF90EF900895F62E0B8D10E005
:100450000F5F1F4F0F731127E02E8C8D8E110CC074
:100460000FB607FCFACFE889F989808185FFF5CFBF
:10047000CE010E94DC01F1CFEB8DEC0FFD2FF11DC1
:10048000E35AFF4FF0829FB7F8940B8FEA89FB89FC
:1004900080818062CFCFCF93DF93EC01888D88235A
:1004A000B9F0AA89BB89E889F9898C9185FD03C0D7
:1004B000808186FD0DC00FB607FCF7CF8C9185FFBC
:1004C000F2CF808185FFEDCFCE010E94DC01E9CF24
:1004D000DF91CF91089580E090E0892B29F00E9470
:1004E000D20181110E94000080E090E0892B49F048
:1004F00080E090E0892B29F00E94000081110E9489
:10050000000080E090E0892B49F080E090E0892BAA
:1005100029F00E94000081110E94000080E090E01C
:10052000892B49F080E090E0892B29F00E9400009F
:1005300081110C94000008958150823108F05AC056
:10054000E82FF0E08827E855FD4F8F4F0C94860880
:10055000C802CC02BA02C002C402FA02CF02D5021B
:10056000D902DF02E302E702ED02F102FA02F5022C
:10057000FB02FF02809180008F77809380000895B6
:10058000809180008F7DF9CF80918000877FF5CFAB
:1005900084B58F7784BD089584B58F7DFBCF80911E
:1005A000B0008F778093B00008958091B0008F7D68
:1005B000F9CF809190008F7780939000089580917B
:1005C00090008F7DF9CF80919000877FF5CF80914B
:1005D000A0008F778093A00008958091A0008F7D68
:1005E000F9CF8091A000877FF5CF809120018F7790
:1005F000809320010895809120018F7DF9CF809113
:100600002001877FF5CFCF93DF93282F30E0F901CA
:10061000EE5DFD4F8491F901E452FE4FD491F90152
:10062000EA56FE4FC491CC23A1F081110E949C0296
:10063000EC2FF0E0EE0FFF1FE458FE4FA591B491B0
:10064000EC91ED2381E090E009F480E0DF91CF911F
:10065000089580E090E0FACF1F93CF93DF93282F87
:1006600030E0F901EE5DFD4F8491F901E452FE4F57
:10067000D491F901EA56FE4FC491CC23A9F0162F6C
:1006800081110E949C02EC2FF0E0EE0FFF1FEE594B
:10069000FE4FA591B4918FB7F894EC91111108C059
:1006A000D095DE23DC938FBFDF91CF911F9108950A
:1006B000DE2BF8CFCF93DF9390E0FC01E452FE4FA6
:1006C00024918A569E4FFC0184918823D1F090E0BA
:1006D000880F991FFC01E85BFE4FA591B491FC01C6
:1006E000EE59FE4FC591D49161110EC09FB7F89499
:1006F0008C91E22FE0958E238C932881E223E8836E
:100700009FBFDF91CF9108958FB7F894EC91E22BC2
:10071000EC938FBFF6CFCF92EF920F931F93CF93AF
:10072000DF93162FD42FC22F682F8FE00E942C0347
:10073000612F80E10E942C036D2F81E10E942C0328
:100740006C2F82E10E942C03602F83E10E942C0316
:100750006E2D84E10E942C036C2D85E1DF91CF91F9
:100760001F910F91EF90CF900C942C03CF92EF92AA
:100770000F931F93CF93DF93162FD42FC22F682F81
:1007800082E00E942C03612F83E00E942C036D2FD6
:1007900084E00E942C036C2F85E00E942C03602FC4
:1007A00086E00E942C036E2D87E00E942C036C2DA6
:1007B00088E0DF91CF911F910F91EF90CF900C9433
:1007C0002C03CF92DF92EF92FF920F931F9383300F
:1007D000910509F442C064F481309105E9F0029773
:1007E00061F11F910F91FF90EF90DF90CF900895EE
:1007F00084309105F1F10597A1F7CC24C394D12C55
:10080000EE24E394F12C10E000E021E030E041E040
:1008100050E070E060E01EC0D12CC12CF12CE12C26
:1008200010E000E030E020E041E050E061E070E006
:1008300090E080E00E94B603D4CFCC24C394D12CA6
:10084000F12CE12C01E010E021E030E050E040E04C
:1008500061E070E081E090E0EDCFCC24C394D12C36
:10086000F12CE12C10E000E021E030E041E050E02C
:10087000EFCFCC24C394D12CEE24E394F12CD0CF31
:100880001F920F920FB60F9211242F933F938F93C5
:100890009F93AF93BF938091BE029091BF02A091AE
:1008A000C002B091C1023091BD0223E0230F2D3769
:1008B00058F50196A11DB11D2093BD028093BE0283
:1008C0009093BF02A093C002B093C1028091B9027D
:1008D0009091BA02A091BB02B091BC020196A11DF9
:1008E000B11D8093B9029093BA02A093BB02B0935A
:1008F000BC02BF91AF919F918F913F912F910F902B
:100900000FBE0F901F90189526E8230F0296A11D89
:10091000B11DD2CF1F920F920FB60F9211240BB6BA
:100920000F922F933F934F935F936F937F938F9388
:100930009F93AF93BF93EF93FF9388E192E00E9460
:10094000DC01FF91EF91BF91AF919F918F917F91CA
:100950006F915F914F913F912F910F900BBE0F9030
:100960000FBE0F901F9018951F920F920FB60F9207
:1009700011240BB60F922F938F939F93EF93FF93B6
:10098000E0912802F09129028081E0912E02F091FD
:100990002F0282FD1DC09081809131028F5F8F7385
:1009A00020913202821741F0E0913102F0E0E85EDE
:1009B000FD4F958F80933102FF91EF919F918F9121
:1009C0002F910F900BBE0F900FBE0F901F90189598
:1009D0008081F2CF789484B5826084BD84B58160D3
:1009E00084BD85B5826085BD85B5816085BD8091FA
:1009F0006E00816080936E00109281008091810072
:100A00008260809381008091810081608093810069
:100A1000809180008160809380008091B10084602B
:100A20008093B1008091B00081608093B00080918C
:100A30009100826080939100809191008160809309
:100A40009100809190008160809390008091A1003E
:100A500082608093A1008091A10081608093A100B9
:100A60008091A00081608093A0008091210182602C
:100A700080932101809121018160809321018091E7
:100A8000200181608093200180917A0084608093AE
:100A90007A0080917A00826080937A0080917A0057
:100AA000816080937A0080917A00806880937A00D8
:100AB0001092C10060E08DE00E945A0360E08CE07B
:100AC0000E945A0360E08BE00E945A0360E08AE0D3
:100AD0000E945A0360E089E00E945A0361E082E0CC
:100AE0000E945A0361E083E00E945A0361E084E0BF
:100AF0000E945A0361E085E00E945A0361E086E0AB
:100B00000E945A0361E087E00E945A0361E088E096
:100B10000E945A0361E08FE00E945A0361E080E185
:100B20000E945A0361E081E10E945A0361E082E180
:100B30000E945A0361E083E10E945A0361E084E16C
:100B40000E945A0361E085E10E945A031092B802A4
:100B50001092B702E0912802F091290282E080838E
:100B6000E0912402F09125021082E0912602F0919A
:100B700027028FEC808310923002E0912C02F091DA
:100B80002D0286E08083E0912A02F0912B02808181
:100B900080618083E0912A02F0912B02808188603D
:100BA0008083E0912A02F0912B028081806880830B
:100BB000E0912A02F0912B0280818F7D808375E085
:100BC000472E512C612C712CE2E02E2E312CF3E0BB
:100BD0008F2E912CC4E0D0E0A5E0AA2EB12C8091FC
:100BE000B7029091B8028230910509F423C108F050
:100BF000ECC0009709F401C1019709F40AC18DE026
:100C00000E940303019751F58DE00E940303892B95
:100C1000D9F70E94CB07A30192010E942308DC01AF
:100C2000CB010196A11DB11D8C019093010280930F
:100C3000000221E030E03093B6022093B5020E941A
:100C4000E1030130110509F014C18091B7029091C0
:100C5000B80201969093B8028093B7028CE00E948C
:100C60000303019741F58CE00E940303892BD9F718
:100C70000E94CB07A30192010E942308DC01CB0153
:100C80000196A11DB11D8C01909301028093000279
:100C90003092B6022092B5020E94E10302301105A3
:100CA00009F0ECC08091B7029091B8020196909340
:100CB000B8028093B7028BE00E940303019741F5CD
:100CC0008BE00E940303892BD9F70E94CB07A30175
:100CD00092010E942308DC01CB010196A11DB11DE8
:100CE0008C0190930102809300029092B602809250
:100CF000B5020E94E1030330110509F0C4C08091E0
:100D0000B7029091B80201969093B8028093B7020F
:100D10008AE00E940303019741F58AE00E940303E1
:100D2000892BD9F70E94CB07A30192010E942308C7
:100D3000DC01CB010196A11DB11D8C019093010234
:100D400080930002D093B602C093B5020E94E103E3
:100D50000430110509F09CC08091B7029091B8024F
:100D600001969093B8028093B70289E00E94030332
:100D7000019741F589E00E940303892BD9F70E946E
:100D8000CB07A30192010E942308DC01CB0101964D
:100D9000A11DB11D8C019093010280930002B092BD
:100DA000B602A092B5020E94E1030530110509F0D8
:100DB00074C08091B7029091B80201969093B802E6
:100DC0008093B7020E946B020ACF8430910509F428
:100DD00049C008F43FC0059709F011CFCC24C39453
:100DE000D12CEE24E394F12C10E000E021E030E07F
:100DF00041E050E070E060E02AC0D12CC12CEE242C
:100E0000E394F12C01E010E021E030E041E050E01B
:100E10001CC0D12CC12CF12CE12C10E000E030E002
:100E200020E041E050E061E070E090E080E00E946E
:100E30008B03E5CECC24C394D12CF12CE12C01E022
:100E400010E021E030E050E040E061E070E081E05F
:100E500090E0EDCFCC24C394D12CF12CE12C10E008
:100E600000E0D2CFCC24C394D12CEE24E394F12C17
:100E7000D4CF1092B8021092B702F0CE1092B802FE
:100E80001092B70218CF1092B8021092B70240CF5A
:100E90001092B8021092B70268CF1092B802109266
:100EA000B70290CFE8E1F2E01382128288EE93E07D
:100EB000A0E0B0E084839583A683B7838AE092E0C4
:100EC0009183808385EC90E09587848784EC90E023
:100ED0009787868780EC90E0918B808B81EC90E007
:100EE000938B828B82EC90E0958B848B86EC90E0E8
:100EF000978B868B118E128E138E148E08958F927F
:100F00009F92AF92BF92CF92DF92EF92FF92CF93D8
:100F1000DF93EC01688179818A819B81611571057C
:100F20008105910521F464E279ED8BE597E02DE1EF
:100F300033EF41E050E00E94230849015A019B0130
:100F4000AC01A7EAB1E40E9442086B017C01ACEE5F
:100F5000B4EFA50194010E945008C60ED71EE81EEA
:100F6000F91EF7FE06C081E0C81AD108E10880E842
:100F7000F80AC882D982EA82FB82C701B6019F774C
:100F8000DF91CF91FF90EF90DF90CF90BF90AF9027
:100F90009F908F9008958F929F92AF92BF92CF9221
:100FA000DF92EF92FF9260910202709103028091B2
:100FB000040290910502611571058105910521F4E6
:100FC00064E279ED8BE597E02DE133EF41E050E00D
:100FD0000E94230849015A019B01AC01A7EAB1E430
:100FE0000E9442086B017C01ACEEB4EFA5019401B4
:100FF0000E945008C60ED71EE81EF91EF7FE06C056
:1010000081E0C81AD108E10880E8F80AC09202021B
:10101000D0920302E0920402F0920502C701B601E9
:101020009F77FF90EF90DF90CF90BF90AF909F9011
:101030008F900895609302027093030280930402DC
:10104000909305020895052E97FB1EF400940E94CC
:101050003A0857FD07D00E94550807FC03D04EF40C
:101060000C943A0850954095309521953F4F4F4F3D
:101070005F4F089590958095709561957F4F8F4F44
:101080009F4F08950E947708A59F900DB49F900DE3
:10109000A49F800D911D11240895B7FF0C94420860
:1010A0000E944208821B930B0895A1E21A2EAA1BEC
:1010B000BB1BFD010DC0AA1FBB1FEE1FFF1FA21708
:1010C000B307E407F50720F0A21BB30BE40BF50B05
:1010D000661F771F881F991F1A9469F7609570958E
:1010E000809590959B01AC01BD01CF010895A29F11
:1010F000B001B39FC001A39F700D811D1124911DEC
:10110000B29F700D811D1124911D0895EE0FFF1FD8
:10111000881F8BBF0790F691E02D1994F894FFCFAC
:10112000FFFF0100000000000000FE0168019501C2
:081130004B02C601A401B80145
:00000001FF
