:100000000C9435010C9466010C9466010C94660105
:100010000C9466010C9466010C9466010C946601C4
:100020000C9466010C9466010C9466010C946601B4
:100030000C9466010C9466010C9466010C946601A4
:100040000C9466010C9466010C9466010C94660194
:100050000C9466010C9466010C9466010C94AD0539
:100060000C9466010C9466010C9466010C94660174
:100070000C9466010C9466010C9466010C94660164
:100080000C9466010C9466010C9466010C94660154
:100090000C9466010C9466010C9466010C94660144
:1000A0000C9466010C9466010C9466010C94660134
:1000B0000C9466010C9466010C9466010C94660124
:1000C0000C9466010C9466010C9466010C94660114
:1000D0000C9466010C9466010C9466010C94660104
:1000E0000C9466010C94DC010C9448020C94F10110
:1000F0000C948B010C9409020C94EB010C94790282
:100100000C94B9020C94E0010C940D020C946E084E
:100110000C94FF010C94F5010C941B020C94FB0150
:100120000C9403020C9426030C9425030C941102E6
:100130000C94D6010C94E8010C948B050C94E4010A
:100140000C9417020C9416020000210024002700D2
:100150002A002D00300033000101000004010701D6
:100160000A0100002200250028002B002E0031008B
:10017000340002010000050108010B01000020000D
:100180002300260029002C002F003200000100006F
:10019000030106010901050505050705080808080A
:1001A000020202020A0A080804040404010101010F
:1001B000010101010303030303030303040707070A
:1001C0000C0C0C0C0C0C0C0C0202020206060606AF
:1001D000060606060B0B0B0B0B0B0B0B010210207C
:1001E000200808102040102040800201020108046D
:1001F0000201010204081020408080402010080401
:100200000201800402018040201008040201080459
:10021000020101020408102040800102040810209D
:10022000408000000A0B02090C0D0E0807030401B0
:1002300000000000000000000000000000000000BE
:10024000000000000000000000000000000012118B
:10025000100000000000000000000000000000008E
:1002600000000000000000006E0811241FBECFEF48
:10027000D1E2DEBFCDBF00E00CBF12E0A0E0B2E0F3
:10028000E4E2F2E100E00BBF02C007900D92AA3752
:10029000B107D9F723E0AAE7B2E001C01D92AD3063
:1002A000B207E1F711E0C5E3D1E000E006C0219715
:1002B0000109802FFE010E940809C433D10780E0A4
:1002C0000807A9F70E94F7050C9410090C94000088
:1002D00096E0899FD0011124AA57BD4F90967C9338
:1002E0006E935F9791E091969C939197E091F302C2
:1002F000F091F4029091F202992339F0309751F085
:10030000811108C08091A2021994309719F05C966F
:100310008C91FACF0895AF92BF92CF92DF92EF9275
:10032000FF920F931F93CF93DF936C017B018B019F
:10033000040F151FEB015E01AE18BF08C017D107EF
:1003400059F06991D601ED91FC910190F081E02D79
:10035000C6011995892B79F7C501DF91CF911F91BE
:100360000F91FF90EF90DF90CF90BF90AF900895E6
:100370008150823108F05AC0E82FF0E08827EC5312
:10038000FE4F8F4F0C940809E401E801D601DC010F
:10039000E0011602EB01F101F501FB01FF0103028F
:1003A00009020D021602110217021B028091800041
:1003B0008F77809380000895809180008F7DF9CFA2
:1003C00080918000877FF5CF84B58F7784BD0895B5
:1003D00084B58F7DFBCF8091B0008F778093B00084
:1003E00008958091B0008F7DF9CF809190008F7734
:1003F000809390000895809190008F7DF9CF809137
:100400009000877FF5CF8091A0008F778093A00028
:1004100008958091A0008F7DF9CF8091A000877F03
:10042000F5CF809120018F778093200108958091EE
:1004300020018F7DF9CF80912001877FF5CFCF9369
:10044000DF93282F30E0F901EE5DFD4F8491F90133
:10045000E452FE4FD491F901EA56FE4FC491CC23E9
:10046000A1F081110E94B801EC2FF0E0EE0FFF1F08
:10047000E458FE4FA591B491EC91ED2381E090E01A
:1004800009F480E0DF91CF91089580E090E0FACF09
:10049000862F0C941F021F93CF93DF93282F30E0F9
:1004A000F901EE5DFD4F8491F901E452FE4FD491C4
:1004B000F901EA56FE4FC491CC23A9F0162F811101
:1004C0000E94B801EC2FF0E0EE0FFF1FEE59FE4F37
:1004D000A591B4918FB7F894EC91111108C0D09503
:1004E000DE23DC938FBFDF91CF911F910895DE2B28
:1004F000F8CF862F642F0C944B02CF93DF9390E0BC
:10050000FC01E452FE4F24918A569E4FFC018491D7
:100510008823C9F090E0880F991FFC01E85BFE4F2B
:10052000A591B491FC01EE59FE4FC591D491611192
:100530000DC09FB7F8948C91209582238C9388816D
:10054000282328839FBFDF91CF910895623051F413
:100550009FB7F8943C91822F809583238C93E881F8
:100560002E2BEFCF8FB7F894EC912E2B2C938FBFBF
:10057000EACF862F642F0C947D022FB7F8946091F8
:100580007F027091800280918102909182022FBF40
:1005900008950F931F93CF93DF93C82FD62F86E034
:1005A000C89FF0011124EA57FD4F11A2878D90A139
:1005B00081309105F1F058F082309105F1F1039707
:1005C00009F440C0DF91CF911F910F9108956623E8
:1005D000C9F361E070E08C2F0E9468010E94BD02A7
:1005E0006093DE027093DF028093E0029093E10259
:1005F000E9CF0E94BD020091DE021091DF0220913E
:10060000E0023091E102AB01BC01401B510B620BD7
:10061000730B8091F0029091F102B0E0A0E084179A
:100620009507A607B70748F462E070E08C2FDF91CA
:10063000CF911F910F910C94680163E070E0D1118C
:10064000C1CFF4CF70E060E0F1CF089590E080E09A
:1006500008958F929F92AF92BF920F931F93CF9363
:10066000DF93CDB7DEB7A1970FB6F894DEBF0FBE0C
:10067000CDBF19A2423008F44AE08E010F5D1F4F32
:10068000842E912CB12CA12CA50194010E94E60886
:10069000E62FB901CA01EA3044F5E05DD801EE93D6
:1006A0008D01232B242B252B79F790E080E01097E8
:1006B00069F0FD0101900020E9F73197AF014A1B75
:1006C0005B0BBD0185EF92E00E948B01A1960FB6F6
:1006D000F894DEBF0FBECDBFDF91CF911F910F9178
:1006E000BF90AF909F908F900895E95CD7CFFC01A9
:1006F00001900020E9F73197AF01481B590BBC016D
:1007000085EF92E00C948B01CF93DF93EC0160E0D6
:100710008E810E944B0261E08E810E944B0260E05C
:100720008E810E944B028BE891E00197F1F7DF91F7
:10073000CF910895CF92DF92EF92FF920F931F9384
:10074000CF93DF936C017C0187E0E80EF11CD0E0D1
:10075000C0E0062F10E0B8010C2E02C07595679519
:100760000A94E2F76170F70181917F010E944B02C8
:100770002196C430D10579F7C601DF91CF911F9141
:100780000F91FF90EF90DF90CF900C948403CF9265
:10079000DF92EF92FF920F931F93CF93DF93EC01C1
:1007A000F62E642F8C810E944B028D818F3F19F0B1
:1007B00060E00E944B020F2D10E08F8584FF25C062
:1007C0006E0187E0C80ED11CF12CE12CB8010E2C73
:1007D00002C0759567950A94E2F76170F601819100
:1007E0006F010E944B02FFEFEF1AFF0A88E0E81644
:1007F000F10461F7CE01DF91CF911F910F91FF902E
:10080000EF90DF90CF900C948403B80184E075954D
:1008100067958A95E1F7CE010E949A036F2DCE016C
:10082000DF91CF911F910F91FF90EF90DF90CF90CC
:100830000C949A0340E0682F85EF92E00C94C70374
:1008400081E00E941A048BE39FE10197F1F708957C
:10085000CF93DF93823029F49091040398609093B2
:100860000403809308031092090380E480930A0331
:1008700080E180930B0380E580930C0361E080911D
:10088000F9020E947D028091FA028F3F19F061E027
:100890000E947D0261E08091FB020E947D02C5EF13
:1008A000D2E09E01255F32408091040384FD0BC09D
:1008B00084E090E021962817390744F461E08E81A6
:1008C0000E947D02EECF88E090E0F4CF8BE39DE0C4
:1008D0000197F1F760E08091F9020E944B0260E01D
:1008E0008091FB020E944B028091FA028F3F19F027
:1008F00060E00E944B028091040384FD34C063E0F9
:1009000085EF92E00E949A03CBE4D6E4CE010197F2
:10091000F1F763E085EF92E00E949A032197F1F7E7
:1009200063E085EF92E00E949A0383E592E00197ED
:10093000F1F762E085EF92E00E949A038091040350
:1009400080620E941A0484E0809305038CE00E9478
:100950001A040E94200482E08093060386E0DF915F
:10096000CF910C941A0480620E941A048BE496E4DE
:100970000197F1F78091040380620E941A0483E5D5
:1009800092E00197F1F78091040380620E941A04BB
:10099000D5CF90910803691710F06FEF690FE62F1C
:1009A000F0E0EB50FD4F9489890F80680C941A0495
:1009B00082E20E941F02019789F482E20E941F02D4
:1009C000892B29F061E086E10E944B02F6CF60E0BE
:1009D00086E10E944B0281E08093850283E20E94BF
:1009E0001F02019781F483E20E941F02892B29F0E4
:1009F00061E087E10E944B02F6CF60E087E10E9450
:100A00004B021092850284E20E941F020197F9F4C2
:100A10008091850281111BC084E20E941F02892BF4
:100A200029F061E088E10E944B02F6CF60E088E1A6
:100A30000E944B028091830290918402873E23E0C2
:100A400092072CF40196909384028093830285E2AE
:100A50000E941F020197F1F48091850281111AC052
:100A600085E20E941F02892B29F061E089E10E9442
:100A70004B02F6CF60E089E10E944B028091830235
:100A800090918402181619062CF401979093840211
:100A90008093830281E20E941F020197D9F581E2CF
:100AA0000E941F02892B29F061E08AE10E944B021B
:100AB000F6CF60E08AE10E944B0260E080E00E9495
:100AC000C90489E292E00E94770361E080E00E941D
:100AD000C9048BE392E00E94770381E20E941F0227
:100AE000019759F781E20E941F02892B29F061E0EA
:100AF0008AE10E944B02F6CF60E08AE10E944B023D
:100B00000E94200460E081E00E94C9048DE492E02C
:100B10000C947703089541E00E94C70381E090E0C0
:100B20000895CF92DF92EF92FF926B017C0141E03A
:100B30006DE285EF92E00E94C70366277727CB011D
:100B40006C197D098E099F094AE00E9429030196CC
:100B5000FF90EF90DF90CF9008951F920F920FB605
:100B60000F9211242F933F938F939F93AF93BF9333
:100B700080917F0290918002A0918102B0918202C7
:100B800030917E0223E0230F2D3758F50196A11DE9
:100B9000B11D20937E0280937F0290938002A093E8
:100BA0008102B093820280917A0290917B02A0919F
:100BB0007C02B0917D020196A11DB11D80937A0245
:100BC00090937B02A0937C02B0937D02BF91AF9182
:100BD0009F918F913F912F910F900FBE0F901F907B
:100BE000189526E8230F0296A11DB11DD2CF789447
:100BF00084B5826084BD84B5816084BD85B5826022
:100C000085BD85B5816085BD80916E0081608093D2
:100C10006E0010928100809181008260809381003B
:100C2000809181008160809381008091800081604B
:100C3000809380008091B10084608093B1008091A6
:100C4000B00081608093B0008091910082608093B9
:100C5000910080919100816080939100809190003B
:100C60008160809390008091A10082608093A100B8
:100C70008091A10081608093A1008091A00081609B
:100C80008093A00080912101826080932101809156
:100C900021018160809321018091200181608093F6
:100CA000200180917A00846080937A0080917A009C
:100CB000826080937A0080917A00816080937A00CC
:100CC00080917A00806880937A001092C10060E081
:100CD00082E20E947D0260E083E20E947D0260E089
:100CE00084E20E947D0260E085E20E947D0260E075
:100CF00081E20E947D0261E086E10E947D0261E066
:100D000087E10E947D0261E088E10E947D0261E04E
:100D100089E10E947D0261E08AE10E947D0261E03A
:100D20008FE20E947D0260E08FE20E944B0282E02F
:100D30000E94280461E086E10E947D0260E086E175
:100D40000E944B02812C912C5401839422242A94DA
:100D5000322C57EE652E53E0752E0E94200460E081
:100D600081E00E94C9048DE492E00E9477038091A3
:100D7000850281116BC121E02093F2020E94BD0225
:100D80000091E2021091E3022091E4023091E50229
:100D9000AB01BC01401B510B620B730B8091EE0247
:100DA0009091EF02B0E0A0E084179507A607B7077F
:100DB00008F002C1C0E08091EC02C81760F4E09135
:100DC000E802F091E902EC0FF11D62E080810E94DF
:100DD0007D02CF5FF0CF512C8091ED02581608F0C4
:100DE0005FC0052D10E0E091EA02F091EB02E00F08
:100DF000F11F61E080810E947D02E091EA02F091A2
:100E0000EB02E00FF11F60E080810E944B02D501F0
:100E1000C401052C04C0880F991FAA1FBB1F0A9488
:100E2000D2F76C017C01E094F094412C8091EC02AB
:100E30004816F8F4C42DD0E0E091E802F091E90200
:100E4000EC0FFD1F80810E941F022496CC0FDD1F36
:100E5000CA57DD4F892B41F4888199818C299D29BE
:100E6000998388834394E2CF888199818E219F2141
:100E7000F7CFE091EA02F091EB02E00FF11F61E0A1
:100E800080810E944B028091EA029091EB02080F50
:100E9000191F60E0F80180810E947D0253949CCF6D
:100EA00006E812E0E8018F8D98A1892B21F41C8EB1
:100EB0003E8E2D8E19A2269682EC92E08C179D070D
:100EC00091F7F12C8091EC02F81608F053C0E12C58
:100ED000CF2CD12CCC0CDD1CF601E257FD4F6F015D
:100EE0002091ED02E21608F043C0F60160817181A5
:100EF0000E2C02C0769567950A94E2F7F29E900157
:100F000011242E0D311DE6E8F2E080E0458D568D6E
:100F10002417350709F4E0C08F5F36968A30B1F7A1
:100F200060FF24C0E6E8F2E090E080E0448D4111EB
:100F300018C0E091E602F091E702E20FF31F408152
:100F400056E0589FF001599FF00D1124EA57FD4FCC
:100F5000448F368F258F10A2178E61E00E94C90240
:100F600005C0019636968A30910501F7E394B8CF13
:100F7000F394A8CFF12CF80181A18111F82E0A5F1A
:100F80001F4F0C171D07B9F70E94BD026093E202C4
:100F90007093E3028093E4029093E502FF2061F0F6
:100FA0008091A702882341F08091A5029091A6022A
:100FB000C091A202019719F01092F202C0E00E94C3
:100FC000D80461E082E00E94C904609183027091BC
:100FD0008402072E000C880B990B97FF11C00E940A
:100FE0009105C11111C080918502882309F4C3CEF7
:100FF00080E090E0892B09F4B0CE0E940000ADCED5
:101000004AE00E942903EDCFC33291F3CA3281F343
:1010100080918302909184024AE0489F9001499F09
:10102000300D11248C2FCC0F990BC097820F931F7A
:10103000883EF3E09F072CF4909384028093830210
:10104000D7CF7092840260928302D2CF60E081E0B9
:101050000E94C9048DE592E00E94770361E082E07E
:101060000E94C9048DE692E00E94770361E082E06D
:101070000E94C9046091830270918402072E000CC3
:10108000880B990B97FF14C00E9491050E94BD0226
:101090006B017C010E94BD026C197D098E099F09BC
:1010A000683E7340810591053CF40E94D804F2CF5C
:1010B0004AE00E942903EACF809183029091840242
:1010C0000197181619060CF4B7CF109284021092EB
:1010D0008302109285028CCF617040CF1092F8028B
:1010E0001092F70281E292E09093F6028093F5026B
:1010F00080E38093F9028FEF8093FA0281E380937B
:10110000FB028DE28093FC028CE28093FD028BE275
:101110008093FE028AE28093FF02109200031092F5
:10112000010310920203109203031092040381E062
:101130000E9428041092880210928C0210928B0256
:1011400010928D0287E192E090938702809386024D
:10115000E2EAF2E01082148213821582369682E06F
:10116000EE3DF807B9F783E092E09093E9028093AF
:10117000E80280E092E09093EB028093EA0284E040
:101180008093EC0283E08093ED0287E092E09093FD
:10119000E7028093E6028AE090E09093EF0280936A
:1011A000EE0284EF91E09093F1028093F0021092AE
:1011B000F4021092F3021092E2021092E3021092F3
:1011C000E4021092E5021092F2020895A1E21A2EB2
:1011D000AA1BBB1BFD010DC0AA1FBB1FEE1FFF1FDB
:1011E000A217B307E407F50720F0A21BB30BE40B2B
:1011F000F50B661F771F881F991F1A9469F7609572
:101200007095809590959B01AC01BD01CF0108952B
:10121000EE0FFF1F881F8BBF0790F691E02D1994EA
:04122000F894FFCF70
:1012240011100F151413123132333435363738395F
:101234002A302300000000B90279024802000000AD
:10124400008B058B0126032503202053494D4F4E67
:10125400204D4152494E20202020002020202047AC
:101264004952414C444F20202020202000494E4721
:1012740052455345205449454D504F3A0053454734
:101284002E2052455354414E5445533A00202020B9
:0A12940020534547554E444F5300C8
:00000001FF
